:0400000019EF00F004
:100008005D829EA00AEF00F00CEF00F017EF00F001
:100018009E90FE0ECF6E0C0ECE6E010E4D26000E7B
:0E0028004E224F2250225D921100F6EF08F09A
:100600000053686F72743A2053617665207C204CE9
:100610006F6E673A204578697400436C69636B209C
:10062000746F206F70656E206D656E750049727213
:1006300069737973204D656E752044656D6F004850
:10064000696768205072657373757265004C6F77C7
:1006500020507265737375726500202056616C7549
:10066000653A2000485020427970617373004C5005
:1006700020427970617373004D61696E204D656E23
:10068000750025642025730073656300707369002D
:100690003C2000000C50D96EDA6ADFCFF6FF060E60
:1006A000F76E0800F550250AD8A459EF03F05BEF68
:1006B00003F0BCEF04F00C50D96EDA6ADF2A000EAA
:1006C000526E000E516E51C059F0536854680C5070
:1006D000D96EDA6ADF50136E13C0F6FF060EF76E9E
:1006E0000800F550640AD8B478EF03F07AEF03F00D
:1006F00088EF03F013C0F6FF060EF76E0800F55002
:10070000690AD8A486EF03F088EF03F00FEF04F036
:100710000DC0D9FF0EC0DAFF020EDF26DF5CD96EF6
:10072000DA6ADECF14F0DECF15F00C50D96EDA6A3B
:100730001328DF6E200E186E15BEA1EF03F0A4EF94
:1007400003F0010EA5EF03F0000E126E180618500C
:10075000600FD96EDA6A14C001F015C002F0000E05
:10076000046E0A0E036E89EC07F001C007F002C0A8
:1007700008F0A5EC09F00750300FDF6E14C001F04F
:1007800015C002F0000E046E0A0E036ED1EC06F0E6
:1007900001C014F002C015F014501510D8B4D3EFF6
:1007A00003F0D5EF03F0DDEF03F01850D8A4DBEF32
:1007B00003F0DDEF03F0A6EF03F01850D8B4E3EF39
:1007C00003F0E5EF03F004EF04F01250D8B4EBEFC0
:1007D00003F0EDEF03F004EF04F018061850600F7B
:1007E000D96EDA6A2D0EDF6E04EF04F01850600F38
:1007F000D96EDA6ADF500F6E0F50016E026A0BC0BD
:1008000003F0E0EC07F0182A200E1818D8A40BEF1C
:1008100004F00DEF04F0F6EF03F0CDEF04F0126AF0
:100820000C50D96EDA6ADFCFF6FF060EF76E0800BD
:10083000F550730AD8A41FEF04F021EF04F029EF5C
:1008400004F00C50D96EDA6ADF2A010E126E6BEFDB
:1008500004F00C50D96EDA6ADFCFF6FF060EF76EA1
:100860000800F5506C0AD8A438EF04F03AEF04F011
:100870006BEF04F00C50D96EDA6ADF500F6E010E88
:100880000F260FC0F6FF060EF76E0800F5506C0A33
:10089000D8A44DEF04F04FEF04F06BEF04F00C50D0
:1008A000D96EDA6ADF500F6E020E0F260FC0F6FF08
:1008B000060EF76E0800F550730AD8A462EF04F034
:1008C00064EF04F06BEF04F00C50D96EDA6A030E9B
:1008D000DF2625EF04F01250D8B471EF04F073EF67
:1008E00004F0B6EF04F00DC0D9FF0EC0DAFF020E1F
:1008F000DF26DF5CD96EDA6ADECF10F0DECF11F0D2
:100900009CEF04F010C0F6FF11C0F7FFF86A050E67
:10091000F76403D00800F55005D0F6CFE1FFF7CF1C
:10092000E2FFE7500F6E0F50016E026A0BC003F03A
:10093000E0EC07F0104A112A10C0F6FF11C0F7FFD3
:10094000F86A050EF76403D00800F55005D0F6CF1D
:10095000E1FFF7CFE2FFE7500009D8A4B2EF04F0BF
:10096000B4EF04F082EF04F0CDEF04F00C50D96E38
:10097000DA6ADF2ACDEF04F00C50D96EDA6ADFCFE5
:10098000F6FF060EF76E0800F550016E026A0BC006
:1009900003F0E0EC07F0B6EF04F01200700ED36E37
:1009A0009B9C0F01386B396B3A6B926A460E936EC3
:1009B000806A816AF19E310ECD6E9D80F28CF28E3E
:1009C00082EC08F06EEC09F0D3EC05F0476E65ECB4
:1009D00006F0486EB8EF05F04804D8A4F2EF04F032
:1009E000F4EF04F0E4EF04F0010E5A6E000E586EBE
:1009F000000E576E35EC08F0E4EF04F04750D8B421
:100A000004EF05F006EF05F029EF05F047505726F3
:100A1000000E582258BE11EF05F00FEF05F015EF4C
:100A200005F0000E586E030E576E58BE21EF05F00C
:100A3000585009E1040E575CD8A021EF05F023EFD0
:100A400005F027EF05F0000E586E000E576E35ECDE
:100A500008F04804D8A42FEF05F031EF05F03FEF80
:100A600005F05750080DF350810FD96EDA6ADECFCA
:100A700055F0DDCF56F0020E5A6E32EC07F0020E42
:100A80004818D8A446EF05F048EF05F0E4EF04F06D
:100A90005A6AE2EF04F04750D8B451EF05F053EF33
:100AA00005F097EF05F047505526000E5622575097
:100AB000080DF350830FD96EDA6ADE50555C56503C
:100AC000800A466EDE50800A4658D8B06AEF05F0BC
:100AD0006CEF05F076EF05F05750080DF350830FDB
:100AE000D96EDA6ADECF55F0DDCF56F05750080DDB
:100AF000F350850FD96EDA6A5550DE5CDE50800AFD
:100B0000466E5650800A4658D8B089EF05F08BEFF4
:100B100005F095EF05F05750080DF350850FD96E8D
:100B2000DA6ADECF55F0DDCF56F032EC07F048043C
:100B3000D8A49DEF05F09FEF05F0ADEF05F05750FD
:100B4000080DF350810FD96EDA6A55C0DEFF56C02A
:100B5000DDFF010E5A6E35EC08F0020E4818D8A4DD
:100B6000B4EF05F0B6EF05F0E4EF04F048EF05F060
:100B70005A50446E456A4550000AD8B4C2EF05F099
:100B8000E4EF04F04450000AD8B4ECEF04F0010A9A
:100B9000D8B4FEEF04F0030AD8B44BEF05F0E4EF4D
:100BA00004F019EF00F081B2D8EF05F0DCEF05F0AA
:100BB000016A012ADDEF05F0016A81B4E2EF05F078
:100BC000E6EF05F0026A022AE7EF05F0026AD89024
:100BD00002340110046E036A5B500418D8B4F3EFBA
:100BE00005F0F5EF05F063EF06F04EEF06F00404B4
:100BF000D8A4FDEF05F0FFEF05F003EF06F0010EBE
:100C0000036E61EF06F0020E0418D8A40AEF06F096
:100C10000CEF06F061EF06F0036861EF06F0030EDB
:100C20000418D8A416EF06F018EF06F01AEF06F035
:100C3000FFEF05F00450D8A420EF06F022EF06F0F5
:100C400061EF06F00CEF06F00450D8A42AEF06F08E
:100C50002CEF06F02EEF06F0FFEF05F0030E041860
:100C6000D8A435EF06F037EF06F061EF06F00CEF91
:100C700006F0020E0418D8A440EF06F042EF06F08A
:100C800044EF06F0FFEF05F00404D8A44AEF06F0A5
:100C90004CEF06F061EF06F00CEF06F05B50000A37
:100CA000D8B4F7EF05F0010AD8B40FEF06F0030A45
:100CB000D8B424EF06F0010AD8B439EF06F061EF9A
:100CC00006F004C05BF003501200000E81BC010E60
:100CD000066E016A0650D8A470EF06F072EF06F0B7
:100CE00082EF06F05C04D8A478EF06F07AEF06F005
:100CF00082EF06F04DC049F04EC04AF04FC04BF0B5
:100D000050C04CF00604D8A488EF06F08AEF06F035
:100D1000CDEF06F05C50D8A490EF06F092EF06F00D
:100D2000CDEF06F049504D5C026E4A504E58036EAE
:100D30004B504F58046E4C505058056E05500410DF
:100D4000031009E1150E025CD8A0A9EF06F0ABEF85
:100D500006F0BDEF06F00550041009E1D00E025C6C
:100D6000070E0358D8B0B7EF06F0B9EF06F0BDEFA5
:100D700006F0010E016ECDEF06F0055004100BE1F8
:100D8000D00E025C070E0358D8A0C9EF06F0CBEFD7
:100D900006F0CDEF06F0020E016E06C05CF00150C9
:100DA0001200066A04BED9EF06F0D7EF06F0DFEFB7
:100DB00006F0036C041ED8B0042A010E066E02BEB3
:100DC000E6EF06F0E4EF06F0ECEF06F0016C021E31
:100DD000D8B0022A010E061A000E086E000E076E29
:100DE00003500410D8B4F7EF06F0F9EF06F021EF46
:100DF00007F0010E056E01EF07F0D89003360436B8
:100E0000052A04AE06EF07F008EF07F0FDEF06F045
:100E1000D890073608360350015C04500258D8A019
:100E200014EF07F016EF07F01BEF07F00350015E19
:100E30000450025A0780D89004320332052E08EF7E
:100E400007F00650D8B427EF07F029EF07F02DEF91
:100E500007F0076C081ED8B0082A07C001F008C0C8
:100E600002F0120003EC0AF0000E056E000E22ECF8
:100E700009F0900E056E0550D8A4060E066EC7EC5C
:100E800008F05750080DF350800FD96EDA6ADF5022
:100E90002F6E2FC005F00550D8A4060E066EC7ECC5
:100EA00008F0000E056E010E22EC09F05A0E056ED8
:100EB0000550D8A4060E066EC7EC08F0300E1D6E65
:100EC000820E1E6E55C01FF056C020F05750080D00
:100ED000F350870FD96EDA6ADF502F6E2FC021F0E2
:100EE0002150D8A4060E226E8BEC09F0300E056E50
:100EF000066AC7EC08F0000E056E030E22EC09F03E
:100F0000010E056E0550D8A4060E066EC7EC08F05B
:100F10001200066A02BE91EF07F08FEF07F097EF1D
:100F200007F0016C021ED8B0022A010E066E04BE44
:100F30009EEF07F09CEF07F0A2EF07F0036C041E92
:100F4000D8B0042A03500410D8B4A9EF07F0ABEFCF
:100F500007F0CFEF07F0010E056EB3EF07F0D89062
:100F600003360436052A04AEB8EF07F0BAEF07F0EF
:100F7000AFEF07F00350015C04500258D8A0C3EF54
:100F800007F0C5EF07F0C9EF07F00350015E04500A
:100F9000025AD89004320332052EBAEF07F00650F9
:100FA000D8B4D5EF07F0D7EF07F0DBEF07F0016C0F
:100FB000021ED8B0022A01C001F002C002F01200E5
:100FC0000350D8B4E6EF07F0E8EF07F0F0EF07F0D2
:100FD0000350D8A4EEEF07F0F0EF07F0F5EF07F0BD
:100FE00001500FEC0AF034EF08F00350D96EDA6AC2
:100FF000090ED926DE50DE10D8B401EF08F003EF59
:1010000008F01CEF08F00350D96EDA6A090ED926F1
:101010000350E16EE26A020EE126DE50E65CE65025
:10102000800A086EDE50800A0858D8B01AEF08F01F
:101030001CEF08F034EF08F00350D96EDA6A020EA4
:10104000D926DF50046E0350D96EDA6ADF500424CB
:10105000D96EDA6A01C0DFFF0350D96EDA6A020E78
:10106000D926DE2A000EDD22120003EC0AF0000E63
:10107000056E000E22EC09F0780E056E0550D8A41E
:10108000060E066EC7EC08F0000E0A6E000E096E22
:10109000000E056E092822EC09F05750091807E1E7
:1010A00058500A18D8A457EF08F059EF08F05EEF2F
:1010B00008F03E0EE7EC09F061EF08F0200EE7ECD7
:1010C00009F00950080DF350800FD96EDA6ADF502D
:1010D000086E08C005F00550D8A4060E066EC7ECD1
:1010E00008F0094A0A2A0ABE7FEF08F00A5009E10F
:1010F000040E095CD8A07FEF08F081EF08F048EFFC
:1011000008F012004E0E056EEB0EE82EFED7052EEF
:10111000FCD70000000E016E030EBFEC09F01A0EA2
:10112000056EF80EE82EFED7052EFCD700D0000E77
:10113000016E030EBFEC09F0850EE82EFED700000D
:10114000000E016E030EBFEC09F0850EE82EFED7EF
:101150000000000E016E020EBFEC09F0850EE82EB5
:10116000FED70000280EF5EC09F00C0EF5EC09F0A6
:10117000060EF5EC09F0010EF5EC09F00B0E056E0C
:10118000620EE82EFED7052EFCD700D01200DDEF50
:1011900008F005C0F6FF06C0F7FFF86A050EF76411
:1011A00003D00800F55005D0F6CFE1FFF7CFE2FFFE
:1011B000E750E7EC09F0054A062A05C0F6FF06C02D
:1011C000F7FFF86A050EF76403D00800F55005D064
:1011D000F6CFE1FFF7CFE2FFE7500009D8A4F3EF25
:1011E00008F0F5EF08F0C9EF08F01200AE0EF66E49
:1011F000130EF76E000EF86E00EE80F010EE20F089
:101200000900F5CFEEFFE550E150FAE1200EF66E51
:10121000140EF76E000EF86E0900F5CF5CF000EECC
:1012200060F0200EEE6AE806FDE100EE49F0130ED4
:10123000EE6AE806FDE15D905D92000EF86E000139
:10124000CEEF04F0066E34EF09F0076A47EF09F0BD
:10125000400E076E47EF09F0140E076E47EF09F0D6
:10126000540E076E47EF09F00650000AD8B425EF78
:1012700009F0010AD8B428EF09F0030AD8B42CEF1A
:1012800009F0010AD8B430EF09F025EF09F0055054
:10129000072607508009F5EC09F012001AC01CF06F
:1012A0005BEF09F019C00BF01C0E0C6E1BC00DF0AB
:1012B0000E6A4AEC03F01CC0F6FF060EF76E08003B
:1012C000F5500009D8A467EF09F069EF09F052EF73
:1012D00009F0000E1A6E000E196E120003EC0AF0EF
:1012E000000E056E000E22EC09F02D0E056E055065
:1012F000D8A4060E066EC7EC08F0000E056E010EAF
:1013000022EC09F01A0E056E0550D8A4060E066EE2
:10131000C7EC08F012001F0E236E1DC024F0000E53
:10132000276E000E266E000E2E6E000E2D6E240E01
:10133000196E1EC01AF0230E1B6E4EEC09F01D50E4
:101340002624D96EDA6ADF6A120008BEAAEF09F015
:10135000ACEF09F0B2EF09F007C007F008C008F0E1
:10136000BEEF09F007C009F008C00AF0091E0A1E06
:10137000094A0A2A09C007F00AC008F01200036EE1
:1013800003C002F00F0E02168050F00B0210806EA8
:1013900001B002D0809C01D0808C809A808E00D0D9
:1013A00000D0809E420EE82EFED700D012003F32C1
:1013B0000000004F018C64000000002D00884D32B9
:1013C0000000004F018C6E000000002D0088046EAC
:1013D000010E016E04380F0BBFEC09F0010E016E17
:1013E00004500F0BBFEC09F01200046E000E016EEA
:1013F00004380F0BBFEC09F0000E016E04500F0B08
:10140000BFEC09F01200010EF5EC09F00B0E056EB1
:10141000620EE82EFED7052EFCD700D01200120077
:0114200001CA
:020000040030CA
:0E000000FF081F3CFF3D81FF0FC00FE00F40C7
:00000001FF
